:100000000C9434000C943E000C943E000C943E0082
:100010000C943E000C943E000C943E000C943E0068
:100020000C943E000C943E000C943E000C943E0058
:100030000C943E000C943E000C943E000C943E0048
:100040000C943E000C943E000C943E000C943E0038
:100050000C943E000C943E000C943E000C943E0028
:100060000C943E000C943E0011241FBECFEFD8E04C
:10007000DEBFCDBF0E9440000C945A000C940000DB
:100080001AB8579A8BB11BB85F9A2FEF83ED90E3A4
:10009000215080409040E1F700C000008BB11BB8B8
:1000A0002FEF83ED90E3215080409040E1F700C0B6
:0800B0000000EACFF894FFCF35
:00000001FF
