S010000041756667616265372E7372656332
S11300000C9434000C943E000C943E000C943E007E
S11300100C943E000C943E000C943E000C943E0064
S11300200C943E000C943E000C943E000C943E0054
S11300300C943E000C943E000C943E000C943E0044
S11300400C943E000C943E000C943E000C943E0034
S11300500C943E000C943E000C943E000C943E0024
S11300600C943E000C943E0011241FBECFEFD8E048
S1130070DEBFCDBF0E944A000C945D000C940000CA
S113008014B8219A299A1AB8579A569A5F985A9886
S11300905B9808950E9440005F9A299A5E9A8FE9BE
S11300A09FE00197F1F700C000005E988FE19EE4A5
S11100B00197F1F700C00000F1CFF894FFCFE4
S9030000FC
