S010000041756667616265352E7372656334
S11300000C9434000C9446000C9446000C94460066
S11300100C9446000C9446000C9446000C94460044
S11300200C9446000C9446000C9446000C94460034
S11300300C9446000C9446000C9446000C94460024
S11300400C9460000C9446000C9446000C944600FA
S11300500C9446000C9446000C9446000C94460004
S11300600C9446000C94460011241FBECFEFD8E038
S1130070DEBFCDBF21E0A0E0B1E001C01D92A730FA
S1130080B207E1F70E94A3000C94E1000C94000075
S11300901AB8579A5F985A985B98089514BC15BC7F
S11300A085B58B7F85BD85B58D7F85BD85B5816023
S11300B085BDEEE6F0E01082808181608083089542
S11300C01F920F920FB60F9211242F938F939F9329
S11300D0AF93BF934F9B13C0809103019091040190
S11300E0A0910501B09106010196A11DB11D809357
S11300F0030190930401A0930501B093060180913C
S1130100030190910401A0910501B0910601853B82
S1130110944CA440B10568F08091020181111092C1
S11301200201109203011092040110920501109231
S11301300601BF91AF919F918F912F910F900FBEA8
S11301400F901F9018950E9448000E944E007894CA
S113015091E04A9B14C080910101811112C09093D7
S11301600101809102018F5F8093020110920301CB
S113017010920401109205011092060102C010921F
S113018001014B9B03C0909300010FC080910001BB
S1130190813059F41092000180910201882329F0E2
S11301A08091020181508093020180910201882391
S11301B031F080910001811102C05F9ACACF5F982B
S10901C0C8CFF894FFCF44
S9030000FC
