:100000000C9434000C943E000C943E000C943E0082
:100010000C943E000C943E000C943E000C943E0068
:100020000C943E000C943E000C943E000C943E0058
:100030000C943E000C943E000C943E000C943E0048
:100040000C943E000C943E000C943E000C943E0038
:100050000C943E000C943E000C943E000C943E0028
:100060000C943E000C943E0011241FBECFEFD8E04C
:10007000DEBFCDBF0E9440000C946C000C940000C9
:100080001AB8579A5F985A985B9820E030E040E0A1
:1000900050E080E090E04A9B04C0452B29F4019693
:1000A00003C040E050E002C041E050E04B9907C07F
:1000B0002130310559F4009729F0019707C021E05C
:1000C00030E002C020E030E05F98E5CF0097D1F348
:0C00D0005F9A20E030E0DFCFF894FFCF13
:00000001FF
