S010000041756667616265322E7372656337
S11300000C9434000C943E000C943E000C943E007E
S11300100C943E000C943E000C943E000C943E0064
S11300200C943E000C943E000C943E000C943E0054
S11300300C943E000C943E000C943E000C943E0044
S11300400C943E000C943E000C943E000C943E0034
S11300500C943E000C943E000C943E000C943E0024
S11300600C943E000C943E0011241FBECFEFD8E048
S1130070DEBFCDBF0E9440000C9458000C940000D9
S11300801AB8579A5F9A5F9A2FEF83ED90E3215045
S113009080409040E1F700C000005F982FEF83EDAF
S11300A090E3215080409040E1F700C00000EBCF86
S10700B0F894FFCFEE
S9030000FC
