:100000000C9434000C943E000C943E000C943E0082
:100010000C943E000C943E000C943E000C943E0068
:100020000C943E000C943E000C943E000C943E0058
:100030000C943E000C943E000C943E000C943E0048
:100040000C943E000C943E000C943E000C943E0038
:100050000C943E000C943E000C943E000C943E0028
:100060000C943E000C943E0011241FBECFEFD8E04C
:10007000DEBFCDBF0E9440000C9475000C940000C0
:100080001AB8579A5F985A985B9880E090E020E001
:1000900030E040E050E070E060E0F1E0E0E04A9BFA
:1000A00008C02115310539F44F5F5F4F2F2F3E2FC8
:1000B00002C0272F362F4B9914C08130910541F48F
:1000C000415051091416150644F0872F962F0BC086
:1000D0001416150644F4009731F45F9A872F962F73
:0E00E000DECF8F2F9E2F5F98DACFF894FFCFE0
:00000001FF
